:020000040000FA
:060000000A128A11E62F2E
:1000080064008001840A04060319003404060528E4
:10001800F401F501701C1128122818287208F40739
:100028000318F50A7308F50701300310F20DF30DF4
:10003800FF3E031D192801300310F10CF00CFF3EA0
:10004800031D202870087104031D2B282C280E2856
:100058007508F1007408F0000800FD01FB1F352841
:1000680036283D28FA09FB09FA0A0319FB0A013068
:10007800FD00F91F402841284628F809F909F80A1F
:100088000319F90A7808790403194B284C287928A8
:100098000130FC00582801300310F80DF90DFF3E1F
:1000A800031D50280130FC07F91F5B285C284F28E6
:1000B80079087B02031D622878087A02031C6528E8
:1000C80066286C287808FA027908031CFB03FB02EF
:1000D80001300310F90CF80CFF3E031D6D280130A8
:1000E800FC02031D782879285C287D0803197D28DF
:1000F8007E288328FA09FB09FA0A0319FB0A7B08F8
:10010800F9007A08F8000800F501F11F8C288D28FD
:100118009428F009F109F00A0319F10A0130F500F1
:10012800F31F972898289F28F209F309F20A031960
:10013800F30A0130F506F601F70170087104031996
:10014800A628A728DC280130F400B32801300310C2
:10015800F00DF10DFF3E031DAB280130F407F11F30
:10016800B628B728AA2801300310F60DF70DFF3E70
:10017800031DB82871087302031DC4287008720291
:10018800031CC728C828CF287008F2027108031C6E
:10019800F303F302761401300310F10CF00CFF3E68
:1001A800031DD0280130F402031DDB28DC28B72802
:1001B80075080319E028E128E628F609F709F60A80
:1001C8000319F70A7708F1007608F000080083168B
:1001D800031386018801831203138801F030860017
:1001E80030300A128A15BE270A128A11C330F40069
:1001F800CD30F300F30BFE28F40BFE2830300A1242
:100208008A15BE270A128A11C330F400CD30F300D4
:10021800F30B0C29F40B0C2930300A128A15BE276F
:100228000A128A11C330F400CD30F300F30B1A29F7
:10023800F40B1A2938300A128A15BE270A128A11B5
:10024800C330F400CD30F300F30B2829F40B282930
:1002580006300A128A15BE270A128A11C330F40022
:10026800CD30F300F30B3629F40B36290C300A1283
:100278008A15BE270A128A11C330F400CD30F30064
:10028800F30B4429F40B442901300A128A15BE27BE
:100298000A128A11C330F400CD30F300F30B52294F
:1002A800F40B522908000310831203133C0D3D0D73
:1002B800C3004308031D612962296B290030BD0072
:1002C8000030BC000030BB000030BA00CC293A082E
:1002D800BE003B08BF003C08C0003D08C1001F30FD
:1002E8000310C10CC00CBF0CBE0CFF3E031D7429CB
:1002F8003E08C200BC17FF30BA05FF30BB05FF300F
:10030800BC050030BD059630C302C31F8C298D295A
:10031800A5294308803A973E0318932994299529DB
:10032800622901300310BD0CBC0CBB0CBA0CFF3E9B
:10033800031D96290130C307031DA329A429952964
:10034800BC2920304302031CAA29AB29B7296229FA
:100358000130BE000310BA0DBB0DBC0DBD0DBE0BA8
:10036800AE290130C3024308031DBB29BC29AC29AF
:1003780042080319C029C129CC29BA09BB09BC09FB
:10038800BD09BA0A0319BB0A0319BC0A0319BD0A35
:1003980008000030831203132605AE00003027053D
:1003A800AF0080302805B0007F302905B100310842
:1003B80030042F042E04031DE229E329EB29003021
:1003C800A9000030A8000030A7000030A6000030C7
:1003D8002A05AE0000302B05AF0080302C05B00098
:1003E8007F302D05B100310830042F042E04031D81
:1003F800FE29FF29072A0030AD000030AC0000308C
:10040800AB000030AA00A91F0A2A0B2A2F2A0030A5
:10041800AE000030AF000030B0008030B1002608D8
:10042800AE022708031C270F1A2A1B2AAF02280826
:10043800031C280F202A212AB0022908031C290F8F
:10044800262A272AB1023108A9003008A8002F0857
:10045800A7002E08A600AD1F322A332A572A0030DB
:10046800AE000030AF000030B0008030B1002A0884
:10047800AE022B08031C2B0F422A432AAF022C087A
:10048800031C2C0F482A492AB0022D08031C2D0FE3
:100498004E2A4F2AB1023108AD003008AC002F08AF
:1004A800AB002E08AA008030A9068030AD062D08C2
:1004B8002902031D692A2C082802031D692A2B0812
:1004C8002702031D692A2A08260203186C2A6D2AA6
:1004D8006F2A0310702A0314080083120313A00064
:1004E80020080319782A792A8D2AF91F7C2A7D2A5F
:1004F8008D2A7609A2007709A3007809A400790952
:10050800A500A20A0319A30A0319A40A0319A50A34
:10051800952A7908A5007808A4007708A30076082A
:10052800A2007908780477047604031D9C2A9D2A82
:10053800A62A0030F9000030F8000030F70000303B
:10054800F600262B9630A100B42A0130A10701300D
:100558000310A50CA40CA30CA20CFF3E031DAC2A8F
:10056800FE302505031DB92ABA2AA92AD42A013042
:10057800A1070130A207003003180130A30700309B
:1005880003180130A407003003180130A507013013
:100598000310A50CA40CA30CA20CFF3E031DCC2A2F
:1005A800FF302505031DD92ADA2ABB2AE62A01309D
:1005B800A1020130FA000310A20DA30DA40DA50D90
:1005C800FA0BDF2AA41BE92AEA2AF02A02302102C0
:1005D8000318EF2AF02ADB2A2118F32AF42AFC2A26
:1005E800FF30A205FF30A3057F30A405FF30A50525
:1005F8000310A10C2108FA00FB01FC01FD011830D1
:100608000310FA0DFB0DFC0DFD0DFF3E031D042B21
:100618007A08A2047B08A3047C08A4047D08A50426
:1006280020080319182B192B1E2BF91F1C2B1D2B07
:100638001E2BA5172508F9002408F8002308F70041
:100648002208F60008000A30F2000030F300831296
:1006580003135108F1005008F0000A128A110C2007
:100668000A128A11700883120313C4007108C500A6
:10067800C601C7014708F9004608F8004508F70011
:100688004408F60000300A128A1171220A128A11EF
:10069800790883120313AD007808AC007708AB0023
:1006A8007608AA003F30A9000030A8000030A70053
:1006B8000030A6000A128A1196250A128A1183129E
:1006C80003132908BD002808BC002708BB0026081A
:1006D800BA000A128A1157210A128A1183120313C7
:1006E8003A08C800E830F0000330F1004808C400B8
:1006F800C5014408F2004508F3000A128A1188204F
:100708000A128A11700883120313C600C70146082B
:10071800C8004708C9000A30F8000030F900643002
:10072800F0000030F1004808C400C5014408F20098
:100738004508F3000A128A1188200A128A117108E2
:10074800FB007008FA000A128A1131200A128A1175
:10075800780883120313C600C7014608CA00470871
:10076800CB000A30F8000030F9000A30F000003001
:10077800F1004808C400C5014408F2004508F30028
:100788000A128A1188200A128A117108FB0070085F
:10079800FA000A128A1131200A128A117808831283
:1007A8000313C600C7014608CC004708CD000A302D
:1007B800F8000030F9004808C400C5014408FA00F0
:1007C8004508FB000A128A1131200A128A1178089A
:1007D80083120313C600C7014608CE004708CF009E
:1007E80088300A128A15BE270A128A113A300A126C
:1007F8008A15AC270A128A118A300A128A15BE276E
:100808000A128A11831203134A08303E0A128A1503
:10081800AC270A128A118B300A128A15BE270A12CF
:100828008A11831203134C08303E0A128A15AC272A
:100838000A128A118C300A128A15BE270A128A11E6
:100848002E300A128A15AC270A128A118D300A1224
:100858008A15BE270A128A11831203134E08303EE6
:100868000A128A15AC270A128A1108008312031388
:100878000608D400F030D405182D1130D00000300F
:10088800D10080300A128A15BE270A128A118312F3
:100898000313D7015708583E8400831300080A122F
:1008A8008A15AC270A128A11013083120313D7075D
:1008B80008305702031C612C622C4E2C8A300A1215
:1008C8008A15BE270A128A110A3083120313D70029
:1008D8005708583E8400831300080A128A15AC276B
:1008E8000A128A11013083120313D7070E305702F8
:1008F800031C7F2C802C6C2C88300A128A15BE278A
:100908000A128A118312031350080A128A11272324
:100918000A128A11262D4130A900F030A8000030B3
:10092800A7000030A6005008F6005108F700F801AB
:10093800F90100300A128A1171220A128A11790803
:1009480083120313AD007808AC007708AB00760873
:10095800AA000A128A11CD210A128A110318B52C8D
:10096800B62CBC2C1E3083120313D0000030D100EB
:1009780088300A128A15BE270A128A1183120313B5
:1009880050080A128A1127230A128A11262D5008A4
:10099800F6005108F700F801F90100300A128A112F
:1009A80071220A128A11790883120313A9007808A0
:1009B800A8007708A7007608A6000030AD00003030
:1009C800AC000030AB000030AA000A128A11CD2119
:1009D8000A128A110318F12CF22CF62C8312031335
:1009E800D001D10188300A128A15BE270A128A114D
:1009F8008312031350080A128A1127230A128A1134
:100A0800262D1130D0000030D10088300A128A1506
:100A1800BE270A128A118312031350080A128A1178
:100A280027230A128A11262D5408703A0319052D16
:100A3800C03A0319CB2C603A03198F2C303A0319AA
:100A4800412C262DC0300A128A15BE270A128A1197
:100A5800831203135008F6005108F700F801F90152
:100A680000300A128A1171220A128A117908831237
:100A78000313A9007808A8007708A7007608A6003D
:100A88004130AD008C30AC000030AB000030AA0023
:100A98000A128A11CD210A128A110318542D552DD4
:100AA8005D2D1330F3000A128A15E4270A128A1101
:100AB800952D413083120313A900A430A8000030FB
:100AC800A7000030A6005008F6005108F700F8010A
:100AD800F90100300A128A1171220A128A11790862
:100AE80083120313AD007808AC007708AB007608D2
:100AF800AA000A128A11CD210A128A110318852D1B
:100B0800862D8E2D2330F3000A128A15E4270A1247
:100B18008A11952D0130F3000A128A15E4270A126A
:100B28008A110800831203132908B6008030B6051D
:100B38002908AE002E07B800A81FA32DA42DA52DA7
:100B4800381438080319A92DAA2DBA2D380A031DFF
:100B5800AE2DAF2DB72D0030A9000030A800003011
:100B6800A7000030A600A817A901C22D0030A900CF
:100B78000030A8000030A7000030A6002D08B700FC
:100B88008030B705370836060319CB2DCC2DCD2D6F
:100B980036172D08AE002E07B700AC1FD42DD52D63
:100BA800D62D371437080319DA2DDB2DEB2D370A2C
:100BB800031DDF2DE02DE82D0030AD000030AC0026
:100BC8000030AB000030AA00AC17AD01F32D0030A7
:100BD800AD000030AC000030AB000030AA0038088F
:100BE80037020318F82DF92D1D2E361FFC2DFD2D6B
:100BF800FF2D8030B6063808B9003708B800390824
:100C0800B7002608B9002A08A6003908AA0027084C
:100C1800B9002B08A7003908AB002808B9002C0830
:100C2800A8003908AC002908B9002D08A90039081E
:100C3800AD00B9013708AE00AF012F08B100380880
:100C48002E02B000031CB1033108803AFF00803047
:100C58007F02031D312E1A303002031C342E352E2C
:100C68006A2E831203132908280427042604031D67
:100C78003E2E402E0130412E0030B9000030A90030
:100C88000030A8000030A7000030A6003708B800E0
:100C9800722E391C502E512E582E3908AE000310D2
:100CA8002E0C0138B9005A2E0310B90C261C5D2EE3
:100CB8005E2E5F2EB9170130AE00290DA90CA80CC5
:100CC800A70CA60CAE0B612E0130B80783120313D4
:100CD80037083802031C712E722E4D2E361B752EC6
:100CE800762EBD2E3808031D7A2E7B2E842E0030DA
:100CF800A9000030A8000030A7000030A600E52FAA
:100D08002A08A6072B0803110318013E03198D2E84
:100D1800A7072C0803110318013E0319942EA807EE
:100D28002D0803110318013E03199B2EA907291C3E
:100D38009E2E9F2E712F391CA22EA32EAA2E390863
:100D4800AE0003102E0C0138B900AC2E0310B90CFC
:100D5800261CAF2EB02EB12EB9170130AE00290DCA
:100D6800A90CA80CA70CA60CAE0BB32E0130B80723
:100D7800712F2908803AFF002D08803A7F02031D51
:100D8800CF2E2C082802031DCF2E2B082702031D67
:100D9800CF2E2A0826020318D22ED32E2A2FFF3050
:100DA800AE00FF30AF00FF30B000FF30B1002A08BE
:100DB800B2002B08B3002C08B4002D08B500260893
:100DC800B2022708031C270FEA2EEB2EB3022808CD
:100DD800031C280FF02EF12EB4022908031C290F3A
:100DE800F62EF72EB5023208AE0733080318330F74
:100DF800FE2EFF2EAF0734080318340F042F052FDB
:100E0800B00735080318350AB1073108A9003008BA
:100E1800A8002F08A7002E08A6008030B6063903C0
:100E2800FF3AB9003908031D1A2F1B2F382F01303C
:100E3800A607003003180130A70700300318013057
:100E4800A807003003180130A907382F2A08A6027E
:100E58002B08031C2B0FA7022C08031C2C0FA8021D
:100E68002D08031C2D0FA90229082804270426048D
:100E7800031D3F2F402F6D2F3908031D442F452F89
:100E88006D2F0030A9000030A8000030A700003006
:100E9800A600E52F0130AE000310A60DA70DA80D82
:100EA800A90DAE0B502FB91F5A2F5B2F5C2F26149C
:100EB800391C5F2F602F642F0314390DB900662F7A
:100EC8000310B90D380803196A2F6B2F6D2F0130E5
:100ED800B802A81F702F712F4E2FB701B91F752F99
:100EE800762F842F39087F3903197B2F7C2F7F2F8A
:100EF8000130B700842F261C822F832F842F7C2F4C
:100F080037080319882F892FBB2F0130A607003017
:100F180003180130A707003003180130A807003074
:100F280003180130A907291C9A2F9B2FBB2F2608CD
:100F3800AE002708AF002808B0002908B10001302A
:100F4800B200310DB10CB00CAF0CAE0CB20BA52F2A
:100F58003108A9003008A8002F08A7002E08A6000D
:100F6800380A0319B82FB92FBB2F0130B807380A30
:100F78000319BF2FC02FC52F3808031DC42FC52F35
:100F8800D32F0030A9000030A8000030A70000309F
:100F9800A6003808031DD12FD22FD32FB601381C35
:100FA800D62FD72FD92FA817DB2F7F30A8053808C1
:100FB800AE0003102E0CA900B61FE32FE42FE52F77
:100FC800A917080083136730FD000F30FE009D301D
:100FD800FF00583084000A128A15D5270A128A1190
:100FE8004830840058300A128A1104200A128A11E3
:100FF80083010A128A158F2F08308A000408840A90
:101008008207003442344134543454344534523421
:10101800593420344E344F3452344D3441344C34E6
:10102800203420342034003442344134543454348D
:1010380045345234593420344C344F3457342034E6
:10104800203420342034003442344134543454346D
:1010580045345234593420344834493447344834B8
:08106800203420342034003450
:101F1E000A128A11EB200A128A150A128A113A2421
:101F2E000A128A15942F0A128A110028423441345B
:101F3E0054345434203456344F344C3454343A34AC
:101F4E0020342034313437342E34F200831203130C
:101F5E008615720888000614FE308605C330F1001F
:101F6E00CD30F000F00BB92FF10BB92F0800F200B5
:101F7E00F730831203138605720888000614FE30AC
:101F8E008605C330F100CD30F000F00BCC2FF10BF5
:101F9E00CC2F08007E088A007F0882000A128A155C
:101FAE00D1270A128A158000840A04087D060319B7
:101FBE000034FF0A0319FE0AD52FF32F730884008D
:101FCE000A128A1500200A128A150A128A15AC27DF
:101FDE000A128A150130F307730884000A128A1553
:101FEE0000200A128A15003A031DFE2FFF2FE52F3F
:021FFE000800D9
:02400E00393F38
:00000001FF
